:020000040800F2
:1000000090040020911C00086D1C00086F1C000863
:10001000711C0008731C0008751C0008000000001B
:10002000000000000000000000000000771C000835
:100030009D17000800000000791C00087B1C0008C8
:10004000C51C0008C91C0008CD1C0008D11C0008F4
:10005000D51C0008D91C0008DD1C0008E11C0008A4
:10006000E51C0008E91C0008ED1C0008F11C000854
:10007000F51C0008F91C0008FD1C0008011D000803
:10008000051D0008091D00080D1D0008111D0008B0
:10009000151D0008191D00081D1D0008211D000860
:1000A000251D0008291D00082D1D0008311D000810
:1000B000351D0008391D00083D1D0008411D0008C0
:1000C000451D0008491D00084D1D0008511D000870
:1000D000551D0008591D00085D1D0008611D000820
:1000E000651D0008691D00086D1D0008711D0008D0
:1000F000751D0008791D00087D1D0008811D000880
:10010000851D0008891D00088D1D0008911D00082F
:10011000951D0008991D00089D1D0008A11D0008DF
:10012000A51D0008A91D0008AD1D0008B11D00088F
:10013000B51D0008000000000000000000000000E5
:10014000000000000000000000000000B91D0008D1
:10015000BD1D0008C11D0008C51D000825180008A8
:10016000C91D0008CD1D0008D11D0008D51D0008BF
:10017000D91D0008DD1D000800000000000000007F
:10018000E11D0008E51D0008E91D0008ED1D00083F
:10019000F11D0008F51D000800000000F91D000811
:1001A000000000000000000000000000FD1D00082D
:1001B000011E0008051E00080000000000000000ED
:1001C000000000000000000000000000000000002F
:1001D000000000000000000000000000091E0008F0
:1001E0002DE9FC4104460025C4B12078DFF8806485
:1001F000C1074BD5B26802F00C02042A07D0B068E0
:1002000000F00C0008280BD17168480208D532684C
:1002100091033BD56068002840F0C980012066E169
:100220006068B0F5803F0FD038B9316821F4803173
:100230003160306820F4802009E0B0F5A02F08D1AB
:10024000316841F480213160306840F480303060A2
:1002500007E0326822F480323260316821F4802174
:100260003160606868B100F017FA074631688803AA
:1002700000F19D8000F010FAC01B6528F6D3032022
:1002800035E100F009FA07463068810340F18F80BC
:1002900000F002FAC01B6528F6D3F0E700F0FCF985
:1002A000C01B022840F2B080E9E7E06880B1316805
:1002B00041F00101316000F0EFF907463068810735
:1002C00000F1CC8000F0E8F9C01B0228F6D9D6E78F
:1002D000306840084000306000F0DEF907463168C1
:1002E000880766D500F0D8F9C01B0228F7D9C6E701
:1002F000706F40084000706700F0CEF90746706FDD
:10030000810775D500F0C8F9C01B0228F7D9B6E7F8
:1003100008B9306F09E00528306F06D140F00400BD
:100320003067316F41F0010105E04008400030675F
:10033000316F21F004013167A06841F2893768B15B
:1003400000F0AAF98046306F810700F1988000F034
:10035000A3F9A0EB0800B842F5D390E700F09CF9B0
:100360008046306F810740F18A8000F095F9A0EB5C
:100370000800B842F5D382E700F08EF9401B02284E
:1003800040F294807BE700F087F9001B022840F2DE
:10039000A98074E700F080F904463168880140F1D3
:1003A000A58000F079F9001B0228F6D967E72078CC
:1003B00081071BD5B26812F00C0F09D0B06800F0AD
:1003C0000C0008287FF471AF716848023FF56DAFEB
:1003D0003268910703D5E06801287FF41FAF3168C8
:1003E000206921F0F80141EAC001316021780A0753
:1003F0000ED5606900283FF47BAF716F41F00101B9
:10040000716700F049F90746706F81077FF546AFC5
:100410002278500738D5316CCA0009D4306C0125D8
:1004200040F080503064316C01F0805100910098B0
:10043000DFF848723968C80518D43A6842F4807207
:100440003A6000F029F980463868C1050ED400F002
:1004500023F9A0EB08006528F6D310E7306821697E
:1004600020F0F80040EAC1003060BFE7A068012832
:100470007FF44EAF306F40F0010030675CE71DB194
:10048000306C20F080503064A06978B3B16801F01E
:100490000C0108293FF4C2AE0228306820F08070B9
:1004A00030607FF477AF00F0F7F8054631688A01D5
:1004B0003FF562AFE369206AA26A616A0343E06ABA
:1004C00043EA81135208521E43EA024343EA00639F
:1004D00043F000537360316841F08071316000F087
:1004E000DBF80446306881017FF54DAF0020BDE8A0
:1004F000F6812DE9F0410400884674D0604E3068E2
:1005000000F00F00404502D200F06FF86BD1206878
:10051000574D810712D5400703D5A96841F4E05132
:10052000A9602078010703D5AA6842F46042AA6056
:10053000A968A06821F0F0010143A9602178CA07E9
:1005400049D56068012802D129688A0303E002289E
:1005500003D129688A0103D445E02B68990742D565
:10056000AA68920840EA8200A86000F095F8074661
:10057000A868616800F00C00B0EB810F2BD000F090
:100580008BF8C01B41F289329042F1D3032020E066
:100590002078410705D5AA68E06822F4E0520243BA
:1005A000AA6021780A0706D5A868216920F460406E
:1005B00040EAC100A86000F022F8AA6831492D4B3A
:1005C000C2F30312895CC8401860002000F06AF88A
:1005D0000020BDE8F081306800F00F008045D7D2E0
:1005E00000F003F8D4D00120F3E73168090948EAA4
:1005F00001113160326802F00F024245704730B598
:10060000224C606800F00C00042802D0082802D0B8
:1006100019E01F4830BD0023226820682568410288
:10062000C5F3881002F03F024CBF19491249A1FBE3
:10063000000100F057F82168C1F30141491C49004D
:10064000B0FBF1F030BD0C4830BD0A480E4A0068DE
:1006500013681049C3F3822206E006480A4A00687C
:1006600013680C49C3F34232895CC84070470000EC
:10067000003802400C0000200024F400007000400C
:10068000003C0240781B0008083802400438024051
:1006900040787D01BC1C000801484068704700BFDD
:1006A0000000002038B50D4D04462A780C4B186820
:1006B0004FF47A71B1FBF2F2B0FBF2F000F06CF99A
:1006C00050B9102C08D2002221464FF0FF3000F024
:1006D0003BF9AC60002032BD012032BD000000209B
:1006E0000C000020BBBBE1B1B2F5803F80F07E8002
:1006F000022A1ED98C46B1FBF2F102FB11C31B0486
:1007000043EA1043B3FBF2FC02FB1C3380B240EA25
:100710000343B3FBF2F002FB103240EA0C4000232B
:100720007047022A05D98446B0FBF2F002FB10C2E2
:1007300070474AB105D100F0010249085FEA300074
:10074000704700220023704700F046B90B000200FA
:10075000002100207047904271EB030CF6D3B3F5F3
:10076000803F2FD2F0B5B3FA83F7B1FA81F4A7F145
:100770000F0E3D1B5340CEF1200602FA0EF2F3415C
:100780005340B5F10F0746D80F3C2C444140C4F10B
:100790002006A040F1414140B1FBF3F603FB1611E6
:1007A000A2FB0645001BA94102D2761E80185941C2
:1007B00080EA010221FA0EF362FA0EF200215A4099
:1007C0003046F0BD30B4B1FBF3FC03FB1C11A2FBBF
:1007D0000C45001BA94103D2ACF1010C8018594112
:1007E00030BC02460B46604600217047B2F1807F64
:1007F00065D3F0B5B2FA82F7B1FA81F4C7F10F060A
:100800003D1B22FA06F307F1110EF24120355A4042
:10081000B5F10F07B8D94140C4F12006A040F1411D
:100820004140B1FBF3FC03FB1C11A2FB0C45001B78
:10083000A94103D2BCF1010C801859410F2F12D3EA
:100840000F3FC90341EA5041B1FBF3F603FB161118
:10085000A2FB0645D4EBC030A94102D2761E801817
:10086000594146EACC3C07B34140C7F12006B840A5
:10087000F1414140B1FBF3F603FB1611A2FB064523
:10088000001BA94102D2761E8018594180EA01025C
:1008900021FA0EF3C7F1200462FA0EF20CFA07F007
:1008A0005A402CFA04F13043F0BD80EA010221FAEB
:1008B0000EF3002162FA0EF260465A40F0BD8C46FB
:1008C000B1FBF2F102FB11C31B0243EA1063B3FB5D
:1008D000F2FC02FB1C331B024CEA002043EA1063CB
:1008E000B3FBF2FC02FB1C331B024CEA002043EA80
:1008F0001063B3FBF2FC02FB1C331B024CEA00202A
:1009000043EA1063B3FBF2FC02FB1C324CEA00200A
:10091000002370470901020002D42948815470471E
:10092000284B02F00F021A4402F8041C7047264BB1
:100930004FF6FF021968000200F4E060114008431E
:10094000224908431860704738B51F4B1C68C4F330
:100950000223C3F10704052C28BF04241D1D072D05
:1009600034BF0023DB1E012505FA04F4641E214078
:10097000994005FA03F35B1E1A401143BDE8344069
:10098000C8E7010007D4012200F01F018A40104B84
:10099000400943F820207047401EB0F1807F10B519
:1009A00001D3012010BD0B4C0F2160604FF0FF30D0
:1009B000FFF7B0FF00220721A2600020216010BDD8
:1009C00000E400E018ED00E00CED00E00000FA05A6
:1009D00000E100E010E000E0704730B4002513E0D3
:1009E00050F8042BD30744BFA9F101039A18091F3B
:1009F000042942F8045BFAD213468C0744BF1580E1
:100A00009B1CC90748BF1D7050F8041B0029E7D183
:100A100030BC704738B5040009D004F1700569682E
:100A200009B900F01FF800F022F8012801D10120D7
:100A300032BD606A08B100F02AF800F00BF822F02D
:100A40002A02826000F01DF8FFE72046BDE8324030
:100A500000F0B0B92068416821F4904141602068FD
:100A60008268704700202870204600F009BA2421CF
:100A7000696020680268520852000260204600F057
:100A80000DB82068016841F00101016070472046FF
:100A900000F02CB9284600F0ACB90000F8B50446C7
:100AA00086482668002300253768A1682269074028
:100AB00060690F43E169174307430F43376072686A
:100AC000E06822F4405202437260B268A169206A71
:100AD00022F430620A4302437948B260794A96426E
:100AE00021D1016801F00301032903D8DFE801F0F7
:100AF000693829471020E1694FF6F076B1F5004FCB
:100B000040F0A88060B1012800F07F80022800F04A
:100B10007F80042800F08180082800F087808DE025
:100B2000FFF793FD7BE068498E420CD1006810F01E
:100B30000C0068D0042813D0082802D00C281ED03E
:100B4000D8E70220D7E761498E420BD1006810F048
:100B5000300058D0102803D02028F2D03028EEE7FB
:100B60000420C8E75A498E420BD1006810F0C0003B
:100B700049D04028F4D08028E3D0C028BAD108203A
:100B8000B9E754498E420CD1006810F440703AD055
:100B9000B0F5807FE4D0B0F5007FD2D0B0F5407FD3
:100BA000CDE74D4A96420ED1016811F4406108D05C
:100BB000B1F5806FD4D0B1F5006FC2D0B1F5406F00
:100BC000BDE7012097E7454A96420CD1006810F432
:100BD000405018D0B0F5805FC2D0B0F5005FB0D003
:100BE000B0F5405FABE73E498E4283D1026812F414
:100BF000404208D0B2F5804FB2D0B2F5004FA0D03D
:100C0000B2F5404F9BE7002075E7FFF726FD06E0B1
:100C10006068344901EB50010CE0FFF7F0FC6168BB
:100C20004A0802EB4002B2FBF1F305E060684108BC
:100C300001F58031B1FBF0F39BB200E00125A3F197
:100C40001000B04233D221681E40C3F34200064375
:100C5000CE602DE040B1012809D002280AD0042836
:100C60000DD0082813D01AE0FFF7EFFC09E0FFF7DA
:100C7000F4FC06E060681C4901EB50010BE0FFF753
:100C8000BEFC616800EB5100B0FBF1F305E0606869
:100C9000410801F50041B1FBF0F39BB200E00125F2
:100CA000A3F11000B04202D22168CB6000E0012520
:100CB0000020206660662846F2BD0000F369FFEF61
:100CC00090380240001001400044004000480040BD
:100CD000004C0040005000400014014000780040EB
:100CE000007C00400048E8010024F40010B590F8B2
:100CF0002410CA0706D502685368816A23F40033BA
:100D00000B43536090F82420910706D5026853687E
:100D1000C16A23F480330B43536090F824205107B9
:100D200006D502685368016B23F480230B4353609C
:100D300090F82420110706D502685368416B23F40C
:100D400000430B43536090F82420D10606D5026877
:100D50009368816B23F480530B43936090F82420B5
:100D6000910606D502689368C16B23F400530B43C8
:100D7000936090F82420510610D502685368016CE6
:100D800023F480130B435360036CB3F5801F05D12C
:100D90005468416C24F4C0040C43546090F824203F
:100DA000110606D501684A68806C22F400220243CD
:100DB0004A6010BD7CB5054605F170040020E06076
:100DC000FFF76AFC296803460A6810070AD56FF026
:100DD0007E46002200964FF40011FFF75BFE08B13B
:100DE000032076BD202000226060A06000202270D9
:100DF00076BD2DE9F04105460E4690461F46069CFD
:100E00002868C1693140B1420CBF01200020404533
:100E10001CD114F1010FF3D0FFF73EFCC01B84423C
:100E200001D3002CECD128680023016821F4D07193
:100E3000016028682021826852085200826005F112
:100E40007000416081600370032000E00020BDE875
:100E5000F081000081B02548016841F080510160B7
:100E6000026802F0805200920099426842F4804287
:100E70004260406800F480400090009901B07047E3
:100E800038B586B0044601A8142100F037F824686C
:100E9000174DAC4228D11748416941F0200141610A
:100EA000426902F0200200920099036843F00403B3
:100EB00003600268C023104802F004020092009907
:100EC000022201930021029203910821032205913D
:100ED000049201A900F016F8002206214720FFF72E
:100EE00033FD4720FFF74DFD07B030BD40380240CD
:100EF000001401403038024000080240002200F097
:100F0000EFB800002DE9F84702460B460024694877
:100F10000F211D680127A74007EA0508B84540F0E2
:100F2000BC805D684FEA8409022D18BF122D11D1D3
:100F3000E50802EB850C09F01C0501FA05F6DCF862
:100F400020E0D3F810A02EEA06060AFA05F535438C
:100F5000CCF8205015684FEA440C032606FA0CF62C
:100F60006FEA060E1E790EEA050506F0030606FA7C
:100F70000CF6354315605D68012D18BF022D03D0B6
:100F8000112D18BF122D10D19568DE680EEA0505E7
:100F900006FA0CF635439560556825EA07075D6843
:100FA000C5F30015A5402F435760D7680EEA070523
:100FB0009F6807FA0CF63543D5605D68ED006CD587
:100FC0000768DFF8F4C009F00C0901FA09F647F4E4
:100FD00080470760056805F480450095009FA708D5
:100FE0005CF8275025EA060E344DAA4208BF0025BA
:100FF00022D0334EB24208BF01251DD0314DAA4246
:1010000008BF022518D0304EB24208BF032513D0C6
:101010002E4DAA4208BF04250ED02D4EB24208BF65
:10102000052509D02B4DAA4208BF062504D02A4E1B
:10103000B2420CBF0725082505FA09F545EA0E0559
:101040004CF82750254E35686FEA080707EA050C6B
:101050005D68ED0348BF48EA0C0CC6F800C075682F
:1010600007EA050C5D68AD0348BF48EA0C0CC6F8FA
:1010700004C0B56807EA050C5D68ED0248BF48EAA0
:101080000C0CC6F808C0F56807EA050C5F68BD02DD
:1010900048BF48EA0C0CC6F80CC0641C0F2C7FF645
:1010A00038AFBDE8F18742690A408A4208BF0904A7
:1010B0008161704744380240083801400000024016
:1010C0000004024000080240000C024000100240F0
:1010D0000014024000180240001C0240003C014085
:1010E00000B500BF130096469446103928BFA0E80B
:1010F0000C50FAD85FEA417C28BF0CC048BF40F8CA
:10110000042BC90728BF20F8022B48BF00F8012B89
:1011100000BD00002DE9FC4706464FF0000930787D
:10112000C846DFF8D473C1070BD5BA6822F40002B1
:10113000BA60BB68F16A0B43BB60F06A08B94FF054
:1011400001093068DFF8B44301030FD5A268706B62
:1011500022F440120243A260706BB0F5801F08BFFA
:101160004FF0010902D008B94FF001083068C10200
:101170000FD5A268B06B22F440020243A260B06BAC
:10118000B0F5800F08BF4FF0010902D008B94FF049
:1011900001083078810630D53A6CDFF8645342F0AC
:1011A00080523A64386C00F08050009000992868B2
:1011B00040F480702860FFF76FFA82462968C805FE
:1011C00000F1DF80FFF768FAA0EB0A006528F5D38D
:1011D00003208FE1FFF760FA401B41F2893188421A
:1011E000C0F0EA80F4E7B86820F4F810B860396F0E
:1011F000B06AC0F30B00014339673178C80607D5E0
:10120000A26822F08072A260A168306B0143A160E5
:101210003268510405D5E368F06D23F4403303438D
:10122000E36031680A0405D5E368306E23F4402397
:101230000343E3603168CA0305D5E368706E23F4A5
:1012400040130343E36031784A0605D5E368F06B49
:101250009B0840EA8303E36031780A0605D5E3681A
:10126000306C23F00C030343E3603168CA0505D5F5
:10127000E368706C23F030030343E36031688A0550
:1012800005D5E368B06C23F0C0030343E360316825
:101290004A0505D5E368F06C23F440730343E3602B
:1012A00031680A0505D5E368306D23F440630343D4
:1012B000E3603168CA0405D5E368706D23F44053D8
:1012C0000343E36031688A0405D5E368B06D23F415
:1012D00040430343E36031688A020BD5E368706FD3
:1012E00023F000630343E360716FB1F1006F08BF47
:1012F0004FF001083268510305D5E368F06E23F022
:1013000040730343E36031680A0205D5E368B06FB8
:1013100023F080530343E36031684A0105D5E36855
:10132000F06F23F000530343E360B9F1000F04D1E1
:101330003168B1F1007F40F09780386820F080601C
:101340003860FFF7A9F905463968080148D5FFF765
:10135000A3F9401B6528F7D33AE7FFF79DF9401B37
:1013600065287DD334E7FFF797F9401B6528C0F067
:1013700085802DE7FFF790F9401B6528C0F0B58008
:1013800026E7386F10F440701EBFB16A01F4407157
:10139000884215D0386F396F41F4803139673A6F20
:1013A00020F4407022F480323A673867386FC10702
:1013B00006D5FFF771F90546386F81077FF50AAF4B
:1013C000B16A01F44070B0F5407F7FF40CAFBA68A9
:1013D000DFF83001014022F4F8121143B96006E74A
:1013E0003178CA070BD5F06A48B920687168B268CD
:1013F00000F0706040EA811040EA027020603068BE
:10140000010303D5726BB2F5801F05D0C00214D55D
:10141000B16BB1F5800F10D12068F16872680906D0
:1014200041EA821100F0E04008432060A068F169C1
:101430004009491E41EA4010A0603068810108D58A
:10144000F0687268B168000640EA821040EA0170F4
:101450002060386840F080603860FFF71DF905466D
:10146000396808017FF579AFB8F1000F41D03968CC
:1014700021F080513960FFF70FF905463868810087
:101480003FF571AF31680A0301D5706B18B1C9021D
:1014900013D5B06B88B960683169726900F4403067
:1014A00040EA811040EA02606060A068316A20F47E
:1014B000F850491E40EA0120A060306881020DD535
:1014C000726FB2F1006F09D16068B26931691204BC
:1014D00042EA811200F0706010436060386840F0AA
:1014E00080503860FFF7D8F80546396888007FF5E6
:1014F00041AF0020BDE8F687003802408438024042
:1015000000700040FFFCFF0FF0B5954C0346656985
:10151000002045F400456561EFF3138571B6266838
:1015200046F48076266004E011F8017B401C03F845
:10153000017B9042F8DB216821F48071216085F302
:101540001388F0BD70B5874D874CEE788749884A7F
:10155000884BB61E082E06D8DFE806F00A141F2CAA
:1015600033678294AE0001203321A8701970D2E055
:10157000AE78042EFBDD0A78D3F801101846FFF789
:10158000C3FF50E0A8780528F1DD421FD3F8010021
:10159000D2B2FFF7B9FF012045E00021A9702A6807
:1015A000C2F3400100290BD1C06B734940F0010028
:1015B00008607EE02868002120F002002860A97001
:1015C000A9E05A78102A2AD8DFE802F0090B0D0F9B
:1015D00011131517191B1D1F212A23252700406AE7
:1015E0001EE0806A1CE0C06A1AE0006B18E0006828
:1015F00016E0406814E0806812E0C06810E00069FE
:101600000EE040690CE080690AE0C06908E0406BC8
:1016100006E0806B04E0C06B02E0006C00E057481D
:10162000C5F803000420A87075E000210020A9700F
:10163000D3F8011041F0010152F820308B4202D062
:10164000401C0828F8D3082865D1002352F823004D
:1016500018B15B1C082BF9D35DE042F823105AE067
:1016600000200021A870D3F80100002640F00100FE
:1016700052F82130834208BF42F82160491C0829F2
:10168000F6D348E03E483F4A0168C4F801101160B3
:101690004168C4F8051051608068C4F80900906082
:1016A0003948016841F480210160286820F0020077
:1016B00028600022AA702EE05A78D3F80210102A6F
:1016C00029D8DFE802F0090B0D0F11131517191BAC
:1016D0001D1F21282325270041621CE081621AE09A
:1016E000C16218E0016316E0016014E0416012E09D
:1016F000816010E0C1600EE001610CE041610AE030
:10170000816108E0C16106E0416304E0816302E0B9
:10171000C16300E0016429680020207041F00101EC
:10172000296068701948036843F08003036070BD46
:1017300030B5174817490324174D08604FF480321D
:10174000114B2C601A60002006490024421000EB67
:101750009273001D9B10902841F82340F6D330BDB2
:1017600014ED00E00010002083100020081000207D
:10177000082000E0031000201C2000E0CEFAADDEBF
:1017800000E100E080E100E0FCED00E00014014039
:1017900055CEACC5B02F00E0002000E07648774A77
:1017A00001680A400ED0764A01EA020101607548DC
:1017B0007549D1F884200260D1F888204260D1F8C0
:1017C0008C20826071484FF000018160C16001612E
:1017D00041618161C161016241626D480268130625
:1017E00007D5C1690B06F8D5F44600F06DF8E6465A
:1017F000F3E76548017841F0030101704FF00501FE
:10180000417063488021026841EA020202605E483A
:10181000017811F0020104D0F44600F003F8E64626
:10182000F5E770475A48C16902688B0604D59306EC
:1018300044BF406A00F007B80B0603D5130648BF43
:1018400000F042B8704750490A78D20700D5704777
:101850004A78012A08D002D3032A26D012D3AA2814
:1018600004BF01224A707047FF2806D14FF00202E0
:101870004A704FF000028A707047AA281CBF0022ED
:101880004A707047AA2802BF03224A7070478A78BC
:1018900002F10303C85402F101028A70802AB8BF22
:1018A00070474FF000024A7070474FF002024A70D2
:1018B000AA28ECD00028F4D12DE9F04FEFF30880EE
:1018C000FFF740FEBDE8F08F2F494A78012A19D072
:1018D00011D3032A36D01CD3052A3FD039D3062A88
:1018E00043D00A7802F0FE020A702A49026801EA2F
:1018F0000202026070474FF001024A704FF0AA02E4
:10190000826270474FF002024A704FF0FF0282621B
:1019100070478A7891F8833093420CDA03F103021E
:101920008A5C826203F1010381F88330AA2A04BF32
:1019300003224A7070474FF004024A704FF0AA0227
:10194000826270474FF002024A704FF0AA02826230
:1019500070474FF000024A708262C2E74FF0060201
:101960004A704FF0AA02826270474FF000024A703C
:101970004FF0A5028262B4E7FCED00E00000040035
:10198000FFFFFBFF00E100E000100020002000E06E
:10199000001401407FFFFFFF30B585B0802400F0C8
:1019A000B7F800F063F853480125016841F00101E0
:1019B0000160026802F0010200920099036843F09E
:1019C00004030360006800F004000090009968467A
:1019D0001421FFF793FA0094002102910322464C50
:1019E0000195039269462046444DFFF78BFA44481F
:1019F000002228604FF4E13169604FF48050AA6002
:101A00000C21EA602A61AA61EA612A621022A863B5
:101A1000284669616A62FEF7FDFF2868016841F4A3
:101A200090710160FFF784FE00BF00BF00BF00BFE0
:101A300000BF00BF00BF00BF00BF00BF00BF00BFAE
:101A400000BF00BF00BF00BF00BF00BF00BF00BF9E
:101A500000BF00BF00BF00BF2A4800BF401E0028D3
:101A6000FBD180212046FFF71EFBE5E780B5B2B031
:101A700006A83021FFF742FA01A81421FFF73EFA29
:101A800012A88021FFF73AFA1F48016841F08051FF
:101A90000160006800F08050009000991B480268C7
:101AA00022F4404242F4804202600368022206A807
:101AB00003F4404300930099069201231021002271
:101AC00009930A910C92FEF78BFB0F2100220191E2
:101AD0000021029201A8039204910592FEF709FDEC
:101AE0004FF400610022129112A82692FFF712FB18
:101AF00033B000BD3038024000000240100000202A
:101B00000014014040420F00403802400070004085
:101B100080B50320FEF70BFF0020FEF7C3FDFFF7A3
:101B200099F9002002BD000010B50E48002301689D
:101B300041F4700101600C490A680C4842F001024E
:101B40000A600B4A8B600C6804404FF000600C6028
:101B500000244A600B6823F480230B60CC600549A5
:101B6000086010BD88ED00E000380240FFFFF6FE7F
:101B70001030002408ED00E000000000000000002C
:101B8000010203040607080930B450F8041B79B1B8
:101B90000268436802440830DC0744BFA9F101042D
:101BA000E31852F8045B43F8045B091FF9D1ECE732
:101BB00030BC704710B5074979441831064C7C4455
:101BC000163404E00A68081D114488470146A14202
:101BD000F8D110BD2C0000004C0000004EF68851DA
:101BE000CEF20001086840F470000860BFF34F8F28
:101BF000BFF36F8F4FF00070E1EE100A70470000E6
:101C0000DBEDFFFF8000000010000020000000005E
:101C100079FFFFFF10000000880000000000002096
:101C20000000000000F00DF8002801D0FFF7C2FF0F
:101C3000AFF300800020AFF30080FFF7ADFE00F0AF
:101C400002F80120704700F001B80000074638464E
:101C500000F002F8FBE7000080B5AFF30080024A15
:101C600011001820ABBEFBE7260002007047FEE71C
:101C7000FEE7FEE7FEE77047704700F001B800009E
:101C80000248416802788A184260704700000020CC
:101C90000148804701480047291B0008B11C000883
:101CA0000100000000000000100000000024F4000B
:101CB000AFF30080FFF792FFFFF7B4FF00000000D2
:101CC00001020304FFF7FEBFFFF7FEBFFFF7FEBFF1
:101CD000FFF7FEBFFFF7FEBFFFF7FEBFFFF7FEBF38
:101CE000FFF7FEBFFFF7FEBFFFF7FEBFFFF7FEBF28
:101CF000FFF7FEBFFFF7FEBFFFF7FEBFFFF7FEBF18
:101D0000FFF7FEBFFFF7FEBFFFF7FEBFFFF7FEBF07
:101D1000FFF7FEBFFFF7FEBFFFF7FEBFFFF7FEBFF7
:101D2000FFF7FEBFFFF7FEBFFFF7FEBFFFF7FEBFE7
:101D3000FFF7FEBFFFF7FEBFFFF7FEBFFFF7FEBFD7
:101D4000FFF7FEBFFFF7FEBFFFF7FEBFFFF7FEBFC7
:101D5000FFF7FEBFFFF7FEBFFFF7FEBFFFF7FEBFB7
:101D6000FFF7FEBFFFF7FEBFFFF7FEBFFFF7FEBFA7
:101D7000FFF7FEBFFFF7FEBFFFF7FEBFFFF7FEBF97
:101D8000FFF7FEBFFFF7FEBFFFF7FEBFFFF7FEBF87
:101D9000FFF7FEBFFFF7FEBFFFF7FEBFFFF7FEBF77
:101DA000FFF7FEBFFFF7FEBFFFF7FEBFFFF7FEBF67
:101DB000FFF7FEBFFFF7FEBFFFF7FEBFFFF7FEBF57
:101DC000FFF7FEBFFFF7FEBFFFF7FEBFFFF7FEBF47
:101DD000FFF7FEBFFFF7FEBFFFF7FEBFFFF7FEBF37
:101DE000FFF7FEBFFFF7FEBFFFF7FEBFFFF7FEBF27
:101DF000FFF7FEBFFFF7FEBFFFF7FEBFFFF7FEBF17
:0C1E0000FFF7FEBFFFF7FEBFFFF7FEBFBD
:0400000508001CB122
:00000001FF
